:020000040800F2
:1000000040080010E90200084903000849030008FD
:1000100049030008490300084903000800000000E4
:10002000000000000000000000000000BD230008E8
:10003000490300080000000063240008C3240008EE
:100040004903000849030008490300084903000860
:100050004903000849030008490300084903000850
:100060004903000849030008490300084903000840
:100070004903000849030008490300084903000830
:100080004903000849030008490300084903000820
:100090004903000849030008490300084903000810
:1000A0004903000849030008490300084903000800
:1000B00049030008490300084903000849030008F0
:1000C00049030008490300084903000849030008E0
:1000D00049030008490300084903000849030008D0
:1000E00049030008490300084903000849030008C0
:1000F00049030008490300084903000849030008B0
:10010000490300084903000849030008490300089F
:10011000490300084903000849030008490300088F
:10012000490300084903000849030008490300087F
:10013000490300084903000849030008490300086F
:10014000490300084903000849030008490300085F
:10015000490300084903000849030008490300084F
:10016000490300084903000849030008490300083F
:10017000490300084903000849030008490300082F
:100180004903000849030008044B05481B1A062BC5
:1001900002D9044B03B11847704700BF97000020F5
:1001A000940000200000000005490648091A891043
:1001B00001EBD171491002D0034B03B118477047CE
:1001C00094000020940000200000000010B5064CB0
:1001D000237843B9FFF7D8FF044B13B10448AFF3BA
:1001E00000800123237010BD980000200000000053
:1001F000B42A000808B5084B1BB108490848AFF3FA
:1002000000800848036813B9BDE80840CCE7064BF6
:10021000002BF9D09847F7E7000000009C00002071
:10022000B42A00089000002000000000154B002BAD
:1002300008BF134B9D46A3F5803A00218B460F461D
:100240001348144A121A02F037FB0F4B002B00D050
:1002500098470E4B002B00D0984700200021040047
:100260000D000D48002802D00C4802F0D1FA02F02F
:10027000FDFA2000290000F0EBFB02F0CFFA00BFEE
:10028000000008004008001000000000710700088E
:10029000980000201C310020112800084528000883
:1002A00080B400AF00BFBD465DF8047B704700BF5F
:1002B00080B400AF034B00221A6000BFBD465DF85A
:1002C000047B70477401002080B400AF00BFBD46BE
:1002D0005DF8047B704700BF80B400AF00BFBD462F
:1002E0005DF8047B704700BF80B582B000AF114B52
:1002F0007B60114B3B6007E03B681A1D3A607A68EF
:10030000111D796012681A603B680C4A9342F3D35E
:100310000B480C494FF000028842B8BF40F8042B4C
:10032000FADB00F057F8FFF781FF00BF0837BD4642
:1003300080BD00BFBC2A00080000002094000020FF
:10034000980000201C31002080B400AFFEE700BF01
:1003500080B483B000AF7860FEE700BF80B483B0A4
:1003600000AF03463960FB7197F90730002B0BDAB9
:100370000D49FB7903F00F03043B3A68D2B2120136
:10038000D2B20B441A7609E0084997F907303A6867
:10039000D2B21201D2B20B4483F8002300BF0C3753
:1003A000BD465DF8047B704700ED00E000E100E031
:1003B00080B500AF064A064B5B6943F40073536196
:1003C00000216FF00400FFF7C9FF00BF80BD00BF30
:1003D00000ED00E080B500AF164A164BD3F8883028
:1003E00043F47003C2F88830134A134B1B6843F080
:1003F00001031360104B00229A600F4A0E4B1B68DA
:1004000023F0847323F4803313600B4B0B4A5A6040
:10041000094A094B1B6823F480231360064B002212
:10042000DA6000F08BF8034B4FF000629A6000BF77
:1004300080BD00BF00ED00E0003802401030002415
:1004400080B487B000AF00233B6100237B610223AF
:10045000FB600023BB6002237B60334B9B6803F08F
:100460000C033B613B69042B07D0082B09D0002B00
:100470003FD12E4B2E4A1A603FE02C4B2D4A1A607A
:100480003BE0294B5B6803F480039B0DBB60264B6C
:100490005B6803F03F037B60BB68002B0DD0254AEF
:1004A0007B68B2FBF3F2204B596847F6C0730B40F0
:1004B0009B0903FB02F37B610CE01D4A7B68B2FBE6
:1004C000F3F2194B596847F6C0730B409B0903FBC5
:1004D00002F37B61144B5B6803F440331B0C013364
:1004E0005B00FB607A69FB68B2FBF3F30F4A1360B1
:1004F00003E00E4B0E4A1A6000BF0B4B9B6803F0E3
:10050000F0031B090C4AD35CDBB23B61074B1A6852
:100510003B6922FA03F3054A136000BF1C37BD464E
:100520005DF8047B704700BF0038024000000020E7
:100530000024F40000127A000400002080B483B08C
:1005400000AF00237B6000233B60364A354B1B68BD
:1005500043F480331360334B1B6803F400333B6078
:100560007B6801337B603B68002B03D17B68B3F56C
:10057000A06FF0D12B4B1B6803F40033002B02D08B
:1005800001233B6001E000233B603B68012B42D12B
:10059000244A244B1B6C43F080531364224A224BA1
:1005A0001B6843F4804313601E4A1E4B9B68936094
:1005B0001C4A1C4B9B6843F400439360194A194B37
:1005C0009B6843F4A0539360164B184A5A60154A2F
:1005D000144B1B6843F08073136000BF114B1B6802
:1005E00003F00073002BF9D0114B40F205621A6042
:1005F0000C4A0C4B9B6823F003039360094A094B98
:100600009B6843F00203936000BF064B9B6803F0B6
:100610000C03082BF9D100BF0C37BD465DF8047BF5
:10062000704700BF00380240007000400854400787
:10063000003C024080B582B000AF7860034800F013
:1006400077F900BF0837BD4680BD00BF6C30002081
:1006500098B500AF094B0A4A1A600A4B0A4A1C1D9A
:1006600013460FCB84E80F0000F0C6F80246054B96
:100670001A60064B034A1A6000BF98BD6C30002018
:10068000743000209C010020140000206430002001
:1006900080B582B000AF7860786800F077F900BF6D
:1006A0000837BD4680BD00BF80B586B002AF87ED7C
:1006B000010A38600223FB81FFF7CAFF144800F0EB
:1006C00027F9B860134800F023F9B860B7F90E2095
:1006D0000023009300231049104800F063F8B8602D
:1006E00000230F4A01210F4800F09EF8B860D7EDB3
:1006F000017A9FED0D7A67EE877AFCEEE77A17EEC6
:10070000901A084800F0B8F800BF1037BD4680BD09
:100710006C30002064300020910600087430002006
:10072000350600087801002000007A4480B400AF4C
:10073000FEE700BF80B483B000AF78607B68013B08
:10074000032B0FD801A252F823F000BF5D07000869
:100750005F070008610700086307000803E002E084
:1007600001E000E000BFFEE7704700BF704700BF38
:100770000020002104460D46084802F049F802F026
:1007800075F82046294600F03DFA0548002100F0A2
:10079000F3FA00F04BFA02F041F800004528000897
:1007A0001400002080B586B000AFF860B9607A60B0
:1007B0003B60FB68BA685A607B689AB2FB681A8132
:1007C000FB680122DA603A68FB681A61FB6804334F
:1007D000396A184600F0D0FA0246FB681A60FB68D6
:1007E0001B68002B14BF01230023DBB27B617B69F4
:1007F00018461837BD4680BD80B500AF00F00EFB2F
:100800000346184680BD00BF80B584B000AF786055
:1008100000F004FBF860F86800F00CFBB86000BF63
:100820001037BD4680BD00BF80B586B000AFF86010
:100830007A603B600B46FB72FB6803F10C02FB68BD
:100840009A60FB687A685A60FB680433F97A3A6800
:10085000184600F0DDFB0246FB681A60FB681B6867
:10086000002B14BF01230023DBB27B617B69184698
:100870001837BD4680BD00BF80B584B000AF78603A
:1008800039607B681B683968184600F0F3FBF86034
:10089000FB6818461037BD4680BD00BF84B080B5E8
:1008A00082B000AF07F1100E8EE80F003B69796A45
:1008B000184600F0ADFC78607B6818460837BD46E6
:1008C000BDE8804004B0704784B080B500AF07F148
:1008D000080E8EE80F00BB68F969184600F0B6FCF8
:1008E00003461846BD46BDE8804004B0704700BFCF
:1008F00080B582B000AF786039607B684FF0FF321E
:100900003968184600F0B0FC78680837BD4680BDED
:1009100080B485B000AF78607B6801225A60012303
:10092000FB60FB6818461437BD465DF8047B7047D2
:1009300080B584B002AF78607B681B687A685268C3
:1009400001921A6900920FCBFFF7A8FF03461846E1
:100950000837BD4680BD00BF80B584B002AF786067
:1009600039603B681B683A68526801921A690092C4
:100970000FCBFFF7A9FF3B685A687B681146184602
:10098000FFF7B6FF78680837BD4680BD80B586B0F2
:1009900000AF78611D4B1B681B68002B0CBF012347
:1009A0000023DBB21A461A4B1A701CE03B46194969
:1009B0001846FFF7D1FFFFF773FC144B1B681B6849
:1009C000002B14BF01230023DBB21A46124B1A700E
:1009D000114B1B78DBB2002B0CBF01230023DBB2D1
:1009E0001A460B4B1A700A4B1B78DBB2002BDDD179
:1009F000074B00221A70786900F010F80020FFF70A
:100A000003FF002318461837BD4680BD6C2A000836
:100A1000240000206C300020D800002080B582B077
:100A200000AF7860074B01221A60074B00221A7052
:100A3000FFF74AFC0548FFF77BFF002318460837FD
:100A4000BD4680BDDC000020240000206430002072
:100A500080B586B000AF78613961FFF7A9FCFFF778
:100A6000EFFCFFF739FC0A4B1B6800221A60FFF706
:100A70001FFC00209FED070AFFF716FE3B460649C4
:100A80001846FFF769FF002318461837BD4680BD9A
:100A90006C2A0008CDCCCC3D6430002000B5DFF8D6
:100AA0000CC000DFDFF808C000DFFEE7210D000802
:100AB000390D00082DE9F041344C237853B1344B03
:100AC0001B68FF229A70334A0020012310702370A4
:100AD000BDE8F081304B3148196800F0D3FC10B10B
:100AE0008520BDE8F08101F07FFB294B21781B6850
:100AF000FF229A700029E6D1294A1368002B43D0BF
:100B0000556845B12A78002A3CD1191D890089B25F
:100B1000284600F06DFD234A234B16681D603EB346
:100B20009588EB1C9BB2062B22D8D768BFB11B4817
:100B3000394600F0B5FC8046D0B129B2043141EA13
:100B4000072130464246002301F0E8F9054688B9FE
:100B50004146124800F0CCFC144B1D60B3E729B2AB
:100B6000043130463A463B4601F0D8F9054608B90B
:100B70000025F1E70E4B0F4A013D53F82550AB6AB3
:100B80005A63E9E70D46C6E71D46C4E79C300020DE
:100B9000E03000209D3000208C2A0008D023002067
:100BA000A42A0008942A0008942F00204030002036
:100BB000C02300209D0A000838B5104C207808B1E9
:100BC000002038BD0E4D2B6893F8241001F02AF94F
:100BD0002B68DA78FF2A08D06A68094952B101F017
:100BE00079FB01232370002038BD9A6A203282F3FA
:100BF0000988F1E781E80C00F1E700BF9D30002093
:100C0000E030002010B5EFF305840CB1822010BD58
:100C1000EFF31484E40703D5DFF80CC000DF10BD48
:100C2000BDE81040FFF746BFB50A000810B588B010
:100C3000EFF3058414B1822008B010BDEFF31484E3
:100C400004F00304022C1DD0032C14D0012C16D068
:100C500008AC84F309880F4C2478E40716D50224E5
:100C600084F31488BFF34F8FBFF36F8FDFF828C072
:100C700000DF08B010BD074C2478E407F6D5FF204C
:100C800008B010BD034C2478E407EFD4032484F3A8
:100C90001488E7E77C2A0008B90B0008002836D042
:100CA00070B506684EB38388DA1C92B2062A24D83F
:100CB000C26804460D46C2B11146164800F0F0FB6A
:100CC0000646D0B1B4F90420E1682068043242EA53
:100CD00001212B46324601F021F9044678B931460C
:100CE0000C4800F005FC204670BD19B204313046B6
:100CF0002B4601F013F9044608B9002070BD013CF1
:100D0000054B064A53F82400836A5A6370BD0020DD
:100D1000704700BFD0230020C02300209D0A000898
:100D200008B501F077F818B10138024B53F82000EC
:100D300008BD00BFC023002090B1830710D1037805
:100D400073B910B5C48C6CB9C07801F06DF9FF2887
:100D50000ED01CB12146074800F0CAFB002010BD90
:100D600080207047C46AC07801F05EF9FF28F0D196
:100D7000812010BDD0230020F8B5EFF305847CBBA3
:100D8000EFF31484E40702D41F4C24781CB1DFF87D
:100D900088C000DFF8BD18B307680FB38688F31C5E
:100DA0009BB2062B1CD8C2680D460446D2B1114630
:100DB000164800F075FB064690B1B4F90420E168CE
:100DC0002068043242EA01212B46324601F0A6F89F
:100DD000044680B931460D4800F08AFB2046F8BD34
:100DE0000020F8BD31B2043138462B4601F096F8A8
:100DF00004460028F4D0601E054B064A53F8200034
:100E0000836A5A63F8BD00BF9D300020D0230020C4
:100E1000C02300209D0A00089D0C000810B5EFF3C8
:100E200005841CB9DFF808C000DF10BD002010BD2C
:100E3000210D000810B5EFF305840CB1822010BD20
:100E4000DFF804C000DF10BD390D000898B130B4E0
:100E500004689CB143689BB101290DD8094C2468F2
:100E600064B11C7944B9012558611C6059711A613B
:100E70001D71184630BC70470020FBE72046F9E79B
:100E80001846F7E740300020820703D110B119B9A6
:100E90008620704780207047F8B52B4B1A680023D6
:100EA00012F1FF3643F1FF3704464FF47A70E0FB4E
:100EB00001673046394601F01FFB2379012B10D022
:100EC000022B0CD1214D2B684BB19C4237D01946D7
:100ED00002E0944226D011460A68002AF9D1812006
:100EE000F8BD1A4DE06002222B6822715BB199684F
:100EF000884204D20EE0916881420DD813461A68E8
:100F0000401A002AF7D10022A0602260A3B11C6021
:100F10000020F8BD1A460023A06091682260081ADC
:100F20009060F3E722680A602268002ADED09668A3
:100F3000A16831449160D9E72C601846F8BD226859
:100F40002A601346F1E700BF802A0008A030002085
:100F5000830704D130B143690169186870470020E4
:100F600001467047014670472DE9F041264E35682D
:100F700082B0D5B1AB68254F013BAB604FF00108A3
:100F80009BB93B682C68346013B11A78012A2FD0C2
:100F90000420FFF7CFFB6B79012B09D085F8048083
:100FA0001CB1A3682546002BEBD002B0BDE8F08150
:100FB0003068EA6858B18168914204D90DE09968B7
:100FC00091420CD818460368521A002BF7D100231F
:100FD000AA602B6050B10560E2E703460020AA60DA
:100FE00099682B608A1A9A600028F4D13560D7E797
:100FF0001846019300F05EFB019B0028C8D01846FC
:10100000294600F05BFBC6E7A0300020942F0020AB
:1010100030B5EFF3058404BBEFF31484E40702D486
:10102000114C24781CB1DFF848C000DF30BD98B106
:101030000368A3B1436893B101290CD80B4D2D6807
:101040007DB11D793DB9012459711C7158611D6034
:101050001A61184630BD204630BD002030BD18460C
:1010600030BD284630BD00BF9D30002040300020FC
:101070004D0E000810B5EFF305840CB1822010BDB1
:10108000DFF804C000DF10BD890E000808B50C4E63
:101090003568EFF305844FF0FF312846002CF8D176
:1010A000DFF820C000DF1028F2D10846DFF818C0B2
:1010B00000DF04460028EBD00846A047E8E700BF61
:1010C000942F002091120008510F000878B1830777
:1010D0000DD102785AB90A0C12040B463AB910B570
:1010E000048BC17898B200F009FD204610BD4FF086
:1010F0000040704778B183070DD102785AB90A0CC5
:1011000012040B463AB910B5048BC17898B200F0BE
:1011100023FD204610BD4FF0004070472DE9F041FF
:101120004FEA10484FEA08480446B8F1000F2CD1A6
:101130000D46C8B180B271B34A1C3FD0314B9942C1
:1011400042D94FF6FE71012200F0B4FC02282CD0E7
:10115000002D14BF40230023002425461846414695
:101160002A462B46BDE8F081B1B14B1C29D0254B56
:10117000994238D94FF6FE714FF6FF70002200F009
:1011800099FC022814D04023E6E7002186200A4675
:101190000B46BDE8F081D6E74FF6FF70424600F0FF
:1011A00089FC022804D04346D6E7A0460823D3E7AB
:1011B000154B1A680823B2F81A80CDE74FF6FF7175
:1011C000C1E74FF6FF71D7E7104B1E684FF47A72F4
:1011D000731E4FF6FE7102FB0533B3FBF6F38B4231
:1011E000B1D899B2AFE7094B1A684FF6FE714FF4C8
:1011F0007A73501E03FB0505B5FBF2F58D42BBD893
:10120000A9B2B9E700093D00E0300020802A0008BB
:1012100070B5EFF305841CB9DFF82CC000DF70BD9A
:10122000054670B183070CD1037853B90B0C1B042E
:101230000E4633B92C8BE978B0B200F099FC204609
:1012400070BD4FF0004070BDCD10000810B5EFF339
:1012500005841CB9DFF80CC000DF10BD4FF0004062
:1012600010BD0000F510000870B50446EFF30585C9
:1012700045B908461146DFF814C000DF84E80700CE
:10128000204670BD82230360204670BD1D110008FA
:10129000F0B5044685B0E8B10378012B05D00021F4
:1012A00080200A460B4605B0F0BD0D46C1B14B1C6F
:1012B00036D01E4B994224D94FF6FE72204602A921
:1012C00000F0A4F9012811D1402100242646274628
:1012D0000C460FE0802021462246234605B0F0BD93
:1012E00002A92A4600F092F901281CD000242646C3
:1012F00027461024029D2046294632463B4605B02B
:10130000F0BD0B4B1B684FF47A70591E4FF6FE72FE
:1013100000FB0515B5FBF3F19142CFD88AB2CDE7BA
:101320004FF6FF72CAE72946CFE700BF00093D002C
:10133000802A00082DE9F0478046C08C244B8008A5
:101340008A4640D0D3F800900746D8F82C6006EBC8
:101350008704630748BF043C4FF08073A4F1400545
:1013600044F8043C44F808AC28460021382201F037
:10137000A3FAD8F81C3044F8203C19F0805FC8F874
:101380002850C8F830A01AD0112F18D9A7F1100092
:101390004008431E0CD02A464FF0CC31013B42F8A6
:1013A000041C42F8081DF9D1C000C0F10800054432
:1013B0002B1F9E423CBF4FF0CC3345F8043C054BFD
:1013C0003360BDE8F0871B68C3F38D079946BCE71F
:1013D000742A0008A52E5AE290F82520836A12B9D3
:1013E00020331960704760331960704710B490F86B
:1013F0002540836A2CB9203383E806005DF8044B4E
:101400007047603383E806005DF8044B704700BF07
:10141000084B1B68DA0107D5074B1B68DB0703D5B0
:10142000064B1B68002B00DB7047054B01221A702E
:10143000704700BFFCED00E0800E00E0000E00E011
:10144000A430002010B4094C2268084B002AFBD0BD
:10145000026B1A601A68054C002AFBD0C37843EA75
:10146000012189B221805DF8044B70477C0000E0C7
:1014700003490B68024A002BFBD0C0B210707047C2
:101480007C0000E0034648B1072907D9043900224F
:10149000084418605A5010465A607047012070473F
:1014A00018B3F9B10B3110B4036821F0030102E065
:1014B00018461B6843B144681A1A121B9142F7D8A8
:1014C00034B9416000F1080318465DF8044B7047D9
:1014D0000219035102F1080351605DF8044B0260E8
:1014E000184670470B46184670470346FBE700BF97
:1014F00088B181B1083988420FD0036823B90AE066
:101500001A6818463AB113469942F9D128B10B68C6
:10151000036000207047012070470020486070473A
:10152000002A30B41FDB033222F003020C24BAB1CC
:10153000A3188B4214D8044401448D1AA3189D4269
:1015400004604160826015D3002100E003469818D2
:10155000854263501144F9D20020186030BC7047B6
:10156000012030BC704722F00042073222F007020F
:101570001024DCE72346EFE7EFF3108372B602682E
:1015800003F001030AB11168016003B962B61046A5
:10159000704700BF81420DD3436899420AD2EFF3EE
:1015A000108372B602680A60016013F0010003D173
:1015B00062B670470120704700207047426882B1D0
:1015C00010B500F021F9044600F03CFA01216170E9
:1015D0002046FFF701FF21460448BDE8104000F017
:1015E000E7B8428801324280704700BFAC3000202B
:1015F0001039002389080122C18102704370837071
:101600004360038143818381704700BF70B5858942
:101610000446CDB14389C289181D01339BB254F8E9
:10162000200008609A42638104BF002363816368DD
:1016300013B16378022B1FD0EFF3108372B6013D14
:10164000A58162B6002070BD16465AB143685BB1F1
:10165000174B196800F0ACF83046082100F0B2FBD7
:10166000012070BD012070BD114A12684260012145
:10167000536090604170EFE7204600F0C5F800210C
:101680000546FFF7A9FE2389E289E869191D0133A0
:101690009BB29A4244F82100238104BF0023238196
:1016A000284600F0CFF9284600F04EFB002070BD20
:1016B000E0300020C2898089101A704708B500F018
:1016C000D7F9BDE8084000F08FBA00BF426870B596
:1016D0000346002A4FD04678022E0D46044625D0F8
:1016E000032E02D0012E10D070BD0846FFF744FF34
:1016F00005460028F8D0204600F086F82946044622
:10170000FFF76AFE0123637007E000F07DF80446EE
:101710002A461021FFF76AFE6670204600F092F913
:1017200021462248BDE8704000F042B800F06CF855
:1017300000210546FFF750FE2389E9691A1D44F888
:101740002210EFF3108272B6A2890132A28162B632
:10175000E28901339BB29A42238104BF0023238193
:10176000012328466B7000F06DF929460F48BDE84B
:10177000704000F01DB88489C589AC4210D2008940
:10178000061D43F82610EFF3108172B601349C81D8
:1017900062B6013080B2854214BF18811A8170BDD3
:1017A0000320BDE87040FEF7C5BF00BFAC3000208D
:1017B00030B4057842688C78013D022D8CBF00253D
:1017C0000125FAB19378A34204D211E098788442BB
:1017D00010D81A465368002BF8D100234B60516093
:1017E00015B18A6030BC704700228A6030BC7047F7
:1017F000134602464B605160002DF5D0996030BC15
:101800008A6070470246E8E702784368013A5968FF
:101810004160022A07D811B1002288605A60002274
:101820009A601846704700225A601846704700BFF9
:10183000034B5A684260002258608260704700BFC4
:10184000AC300020816830B4002933D00B780A46D0
:101850001BB992681378002BFBD043684B60436838
:1018600003B19960157851688478013D022D8CBFD1
:101870000025012500292DD08B78A34204D211E048
:101880009A78944210D819464B68002BF8D100235F
:101890004360486015B1816030BC704700238360AD
:1018A00030BC70470B46114643604860002DF5D0B0
:1018B0009860F0E74378012BEED1074B5A689042CD
:1018C00004D01346002AF9D1034ACBE742685A6094
:1018D000014AC7E71146DAE7AC30002030B4164CB5
:1018E000E2681AB3A38A994203D822E0D4689CB173
:1018F0002246948A23449942F8D8D568C560D060BE
:10190000C468026104B120615B1A9BB28382918A30
:10191000CB1A938230BC70479BB2CB1A0021C160B6
:1019200030BCD060026193828182704713462246A8
:10193000F3E715462246E1E7C43000202DE9F041E7
:10194000324FF868002859D0BD8A013DADB2BD8242
:10195000002D53D1DFF8BCE02D4B9EF80060B3F8AA
:101960000080013E022E8CBF002601264FF0010CA4
:10197000826832B14368536043680BB19A60456036
:101980008560DEF804208478002A39D09378A34259
:1019900004D219E099788C4218D81A465368002B63
:1019A000F8D14560506006B9002243788260042B6C
:1019B000828A15D0C36880F801C0CBB11F61C560B1
:1019C0000561FAB91846D3E71346124A43605060DE
:1019D000002EE9D0986043788260042B828AE9D196
:1019E000C38A80F801C043448382C368002BE5D1D9
:1019F00003613AB9BA82FA60BDE8F081BDE8F081CE
:101A0000044ACEE7BA82FB60BDE8F081C430002012
:101A1000A8300020AC30002083682BB142685A60A7
:101A2000426802B193607047054B5A68904203D0F8
:101A30001346002AF9D1704742685A60704700BFC8
:101A4000AC300020036973B1C268DA60C16859B173
:101A500030B49A8A858A00242A449A820B61C46031
:101A600030BC0023036170479982002303617047F3
:101A700030B40F4BDC78EFF3108272B69A78944250
:101A800008D9551C1A789D70551CAC4214BFEDB294
:101A900000251D7062B6944205D903EBC20330BC29
:101AA000586099607047022030BCFEF743BE00BF0B
:101AB000102F0020104B10B51B6862B11A8B00EA82
:101AC0000204844211D0062258830846114600F0D1
:101AD00079F9012010BD1A8B10EA02040AD022EA1B
:101AE000000018835C83022010BD22EA04021A83DE
:101AF000022010BD0522E7E7E03000200139154B38
:101B000010B553F8214044B1238B6278618B1843A0
:101B1000062A208318D0052A00D010BD10EA010340
:101B2000FBD0638320EA010020832046FFF78AFF71
:101B3000012320466370628B0821FFF757FC204683
:101B4000BDE8104000F000B900EA01038B42E9D083
:101B500010BD00BFC02300200139044B53F82130D1
:101B60001BB11A8B22EA000018837047C0230020A3
:101B700008B50139064B53F821303BB101461846F0
:101B8000FFF776FFBDE8084000F02EB808BD00BFA3
:101B9000C023002038B5038B4278458B1943062AB1
:101BA000018319D0052A00D038BD11EA0503FBD006
:101BB000438321EA050104460183FFF743FF012324
:101BC000204663700821628BFFF710FC2146054810
:101BD000BDE83840FFF7ECBD01EA0503AB42E8D0B1
:101BE00038BD00BFAC300020054B1A7812B101227D
:101BF0009A707047034B4FF080521A60704700BFD5
:101C0000E000002004ED00E038B51A4B1A4D1868CA
:101C100001234370FFF70CFEAB786C7893B921E099
:101C2000012A1AD0FFF7CAFCEB7801349C4208BFA6
:101C30000024EFF3108372B6AB78013BDBB2AB70DC
:101C400062B67BB105EBC4014B681A781846002ACE
:101C5000E6D10989FFF79EFFE6E718468968FFF796
:101C600035FDE1E705486C70FFF7CEFDBDE8384073
:101C700000F058B8E0300020102F0020AC300020D9
:101C80000A4A0B490B480C4B10B414680C600B4A01
:101C9000002407210460196013685DF8044B43F0C9
:101CA0007F434FF0FF301360704700BF782A000871
:101CB00014E000E018E000E010E000E020ED00E0BB
:101CC000704700BF08B50B4B186801234370FFF73E
:101CD000AFFDFEF74BFD084A136801331360FFF7B1
:101CE0002DFEFFF741F90548FFF78EFDBDE80840DE
:101CF00000F018B8E0300020A8300020AC30002000
:101D0000064B1B68DA6A9B6A9A4203D81268044B36
:101D10009A4202D00120FEF70DBD7047E03000204E
:101D2000A52E5AE2064A074B1278586002214170EC
:101D30002AB11B68984202D0C078FFF799BB704760
:101D4000A4300020E030002038B5044600B31A4D1E
:101D50008278286883789A420BD9FFF769FD174A81
:101D60002B6812780120022158706C60617042B9B2
:101D700038BD0123637021461148BDE83840FFF7A4
:101D800017BD9C42F4D0E078BDE83840FFF770BB47
:101D90000B48FFF739FD094A074B127858600221BA
:101DA0004170002AE4D01B688342E1D0C078BDE8CE
:101DB0003840FFF75DBB00BFE0300020A4300020BA
:101DC000AC300020F8B138B54FF6FF7398420D469D
:101DD0000D4C03D001462068FFF780FD23680B48B7
:101DE0005D70FFF711FD0A4B60601B780649022207
:101DF000427003B938BD0B689842FBD0C078BDE88B
:101E00003840FFF735BB7047E0300020AC30002091
:101E1000A4300020024B186800B1C078704700BFA2
:101E2000E030002070B558B9374D2B68997083F8B1
:101E30002410364C626892788A4236D8002070BDF1
:101E4000334B1B88984201D9FF2070BD0138314BBC
:101E500053F82040002CF7D02B4DA1702B6884F84C
:101E600024109C42E5D02046FFF7ECFC6678012E5A
:101E7000E4D12648FFF7C8FC0446002836D028687D
:101E8000A27883789A422AD9FFF7D2FC224A2B689B
:101E900012785E7002216C606170002ACED09C4284
:101EA000CCD0E078FFF7E4FAC8E719462046FFF700
:101EB0007FFC2B68144E01225A702046FFF7A4FCC9
:101EC000154B68601B7802224270002BB6D0336835
:101ED0009842B3D0C078FFF7CBFA002070BD66708F
:101EE00021460A48FFF764FC002070BD0748FFF751
:101EF0008BFC094B68601B7802224270002B9DD03E
:101F00002B689842E6D199E7E0300020AC30002001
:101F1000702A0008C0230020A43000202DE9F041E1
:101F200011F0FF0F0C460646384890461F4608BF82
:101F30000134FFF721FB054668B30020C4F30F21ED
:101F40000123E4B2C5F82C80EF61E984AC7085F818
:101F5000244028706860A860E86028612862A88230
:101F6000E8822883688385F825006B70B1B131461B
:101F70002846FFF7DFF9264B198861B12548036829
:101F8000002B40D00346012402E053F8042F52B145
:101F900001348C42F9D90020BDE8F0811E48FFF7DA
:101FA000EBFAE862E3E7631EE2B21C4F40F823500D
:101FB0003B78EA701BB128460121FFF743FA184E1F
:101FC000AA78306883789A420CD9FFF731FC3368DD
:101FD0003A78012002215870756069705AB920461C
:101FE000BDE8F08101236B7029460E48FFF7E0FB46
:101FF0002046BDE8F0819D42F1D0E878FFF738FA3D
:102000002046BDE8F08101221446CEE7982F00203B
:10201000702A0008C0230020B0010020A430002056
:10202000E0300020AC3000202DE9F047674F3C68DD
:1020300048B1E378834206D0654B1B88984258D953
:10204000FF20BDE8F0870023637000F08CF9A062E8
:10205000FFF756FE3B681C6AE4B101266368204620
:10206000002B3ED0FFF7D0FB00210546FFF7B4F967
:102070002846FFF7E7FC6E7029465648FFF798FBA5
:10208000E3682A6AE260A56066802C621C46002C28
:10209000E4D13B68DA785049504D51484B4E013AF3
:1020A000002441F82240D96AFFF774FA39682B7886
:1020B000CC6223B108462146FFF7C4F9316849488C
:1020C000424EFFF767FA002442483C60FFF79CFB52
:1020D0002B78786002224270002B61D10020BDE88D
:1020E000F087E2686380A360E3601446002CB5D1FA
:1020F000CFE7461EDFF8E0A05AF82690B9F1000FAE
:102100009ED04846FFF788FC4846FFF79BFCD9F86D
:1021100020404FF00108E4B163682046002B48D00E
:10212000FFF772FB00210546FFF756F92846FFF737
:1021300089FC85F8018029462648FFF739FBE368CA
:102140002A6AE260A560A4F802802C621C46002C7A
:10215000E2D100244AF82640204DD9F82C1020481E
:10216000FFF718FA2B78C9F82C4053BB194C1D48BF
:10217000164E4946FFF70EFA396862688B789278F6
:102180009A42ABD901234B702046FFF711FB204642
:10219000FFF73AFB2B78706002224270002B9DD033
:1021A000336898429AD0C078FFF762F90020BDE802
:1021B000F087E2686380A360E3601446002CABD133
:1021C000C7E721464846FFF73DF9CFE7E03000205A
:1021D000702A0008AC300020C0230020A43000206A
:1021E000B0010020982F0020F8B5FFF711F9294B16
:1021F0001A8822B192002848002100F05DFB274B8D
:1022000027481988274D284E3422FFF789F9274A95
:10221000274B12881968274842F00042FFF780F9DF
:10222000254B264A198810680822FFF779F90024FF
:10223000FF2201231F48EA706B70EC842C70AC7095
:1022400085F824406C60AC60EC602C612C62AC8240
:10225000EC822C836C8385F82540FFF78DF91849B3
:10226000E8622846FFF766F81649174B174A1848E0
:102270000D603678022704216F70D6701470547088
:10228000017019704460DC601C619C82BDE8F840FC
:10229000FEF76ABA702A0008C0230020842A0008CA
:1022A000982F0020E8300020902A0008742A0008A7
:1022B000882A0008B0010020AC2A0008D4000020C1
:1022C0002D070008E0300020C4300020102F00202F
:1022D000AC30002008B51E4B1A6842F47F021A6029
:1022E0001B681B0203F07F43DB43B3FA83F3194AF5
:1022F00019481268DBB2C3F10803C2F30222934209
:1023000098BF531C6FF08071026801FA03F322F04A
:102310007F4203F07F4313430360FFF7B1FC0F4B91
:102320000028186012DB00F1604000F56440FF22D5
:1023300002701A6853099B0003F1604303F561437F
:1023400002F01F02012101FA02F21A6008BD00BF6B
:1023500020ED00E00CED00E01CED00E0DC300020A2
:1023600080F309887047EFF309807047684680F36F
:1023700009885A480078C00714BF0220032080F360
:1023800014887047DFF858C1EFF305831B0618BFA8
:102390006047EFF31483DB0708BF604700DF704737
:1023A000DFF840C1EFF305831B0618BF6047EFF36A
:1023B0001483DB0708BF604700DF7047EFF3098035
:1023C000816911F8021CE1BB90E80F1010B5E047DD
:1023D000BDE81040EFF3098C8CE80700424B93E80E
:1023E0000600914208BF704741B91EF0100F16D188
:1023F0003E49086820F00100086010E01EF0100F50
:1024000006BF2CED108A0120002081F825002CE960
:10241000F00FC1F828C00CB4FFF772FC0CBC1A60B6
:10242000D2F828C0BCE8F00F92F8250000280EBFB3
:102430006FF0020E6FF0120EBCEC108A8CF309885C
:10244000704710B52A4A1268914209D8294C54F8AD
:10245000214090E80F10A047EFF3098C8CE80F00A3
:1024600010BD10B5FFF7D0FBBDE810401E4B93E840
:102470000600914208BF7047EFF3098C1EF0100F61
:1024800006BF2CED108A0120002081F825002CE9E0
:10249000F00FC1F828C00CB4FFF732FC0CBC1A6076
:1024A000D2F828C0BCE8F00F92F8250000280EBF33
:1024B0006FF0020E6FF0120EBCEC108A8CF30988DC
:1024C000704710B5FFF7FEFBFFF7CEBF10B5FFF763
:1024D000F7FBFFF7F7FBFFF7C7BF00007C2A0008F8
:1024E0007915000895150008E030002034EF00E071
:1024F00000000000FCFFFFFF53B94AB9002908BFE4
:1025000000281CBF4FF0FF314FF0FF3000F07EB9C4
:10251000ADF1080C6DE904CE00F006F8DDF804E03A
:10252000DDE9022304B070472DE9F0478C460E46E2
:102530000446089D002B50D18A4217466CD9B2FA46
:1025400082FEBEF1000F0BD0CEF1200420FA04F47D
:1025500001FA0EF644EA060C02FA0EF700FA0EF43F
:102560004FEA1749220CBCFBF9F01FFA87F809FB68
:1025700010C642EA064600FB08F3B34209D9F61931
:1025800000F1FF3280F02281B34240F21F81023815
:102590003E44F61AA2B2B6FBF9F309FB136642EA0F
:1025A000064403FB08F8A04509D9E41903F1FF32FA
:1025B00080F00A81A04540F20781023B3C44C8EB11
:1025C000040443EA00400021002D62D024FA0EF4F6
:1025D00000232C606B60BDE8F0878B4207D9002D8B
:1025E00055D0002185E841000846BDE8F087B3FAE0
:1025F00083F1002940F09080B34202D3824200F27E
:10260000F880841A66EB03060120B446002D40D002
:1026100085E81010BDE8F08712B90127B7FBF2F783
:10262000B7FA87FEBEF1000F35D1F31B4FEA17480A
:102630001FFA87FC0121B3FBF8F0220C08FB1036CF
:1026400042EA06460CFB00F3B34207D9F61900F143
:10265000FF3202D2B34200F2CE801046F61AA2B286
:10266000B6FBF8F308FB136642EA06440CFB03FCD6
:10267000A44507D9E41903F1FF3202D2A44500F2C0
:10268000B5801346CCEB040443EA00409CE729469E
:102690002846BDE8F087CEF1200106FA0EF307FACE
:1026A0000EF720FA01F94FEA1748CE4049EA03092C
:1026B000B6FBF8FA4FEA194408FB1A661FFA87FCC2
:1026C00044EA06430AFB0CF29A4200FA0EF40AD9D5
:1026D000DB190AF1FF3180F087809A4240F2848052
:1026E000AAF1020A3B449B1A1FFA89F9B3FBF8F1DD
:1026F00008FB113349EA034301FB0CF69E4207D95C
:10270000DB1901F1FF326BD29E4269D902393B4499
:102710009B1B41EA0A418EE7C1F1200E22FA0EF41A
:102720008B40234320FA0EF706FA01F44FEA134CCC
:1027300026FA0EF63C43B6FBFCF9270C0CFB196697
:102740001FFA83F847EA064609FB08F7B74202FA80
:1027500001F200FA01FA08D9F61809F1FF3041D266
:10276000B7423FD9A9F102091E44F61BA0B2B6FB3D
:10277000FCF40CFB146640EA064704FB08F8B84575
:1027800007D9FF1804F1FF3028D2B84526D9023CFA
:102790001F4444EA0940C8EB0707A0FB02894F45E4
:1027A00044464E4614D329D065B3BAEB040367EB15
:1027B000060707FA0EFECB40CF404EEA030385E83A
:1027C00088000021BDE8F0871346F8E61046E0E6F1
:1027D000B8EB020469EB03060138E5E70446D8E7E5
:1027E000114695E78146C0E78A467CE7023B3C44B8
:1027F00048E708460AE702383E442FE7C245E7D3D8
:102800003E46D1E72946BDE8F08700BF704700BFCC
:10281000002301461A46184600F056B808B5074B83
:10282000044613B1002100F0ABF8054B1868836A29
:1028300003B198472046FDF78BFD00BF81290008B2
:10284000B02A000838B5074B074CE41AA4101D46FF
:1028500024B1013C55F824309847F9E7BDE83840E9
:1028600000F0FEB88C0000209000002070B50E4BE8
:102870000E4CE41AA41000251E46A54204D056F8BA
:10288000253098470135F8E700F0E4F8084C094B8B
:10289000E41AA41000251E46A54204D056F825309F
:1028A00098470135F8E770BD8800002088000020B7
:1028B0008C0000208800002002440346934202D08E
:1028C00003F8011BFAE770472DE9F843294D2C68FE
:1028D00006460F46914698460CB9274C2C60636813
:1028E0001F2B14DD254B1BB94FF0FF30BDE8F883DB
:1028F0008C20AFF3008004460028F5D000232A681E
:10290000026043602860C0F888304EB306E03EB3F2
:10291000D4F8880078B9194B002BE5D04FF48470B7
:10292000AFF300800028DFD00023C0F80031C0F8EA
:102930000431C4F88800626840F822900123934073
:1029400000EB8201D0F800211A43022EC0F80021CA
:10295000C1F8808002BFD0F804211343C0F80431CD
:1029600063685A1C02336260002044F82370BDE89B
:10297000F88300BF70010020E40000200000000088
:102980002DE9F74F89460190304B1C6898464FF06F
:10299000010B002C56D06568D4F888606F1EAD001E
:1029A00006EB050A04352544002F36DBB9F1000F8C
:1029B00009D026B9013FAAF1040A043DF4E7DAF888
:1029C0007C209145F6D161682A6801398F4216BF93
:1029D000002367602B60002AECD0636800932EB15F
:1029E000D6F800010BFA07F1014201D190470BE044
:1029F000D6F80401014204D15AF8041C019890470A
:102A000002E05AF8040C90476268009B9342BBD1E5
:102A1000D8F800209442CDD0B6E70D4B93B1626850
:102A2000236862B95BB1C8F8003016B13046AFF325
:102A300000802046AFF30080D8F80040A9E7A04608
:102A40001C46A6E703B0BDE8F08F00BF7001002070
:102A500000000000F8B500BFF8BC08BC9E467047F7
:102A6000F8B500BFF8BC08BC9E4670477401002052
:102A700003000000001102017F2C80000100000013
:102A800050C30000A800000010220000400B00000E
:102A9000100000008D10000803000000010000007D
:102AA0002003000004000000B400002000004300E8
:042AB00028000020DA
:082AB40078D7FF7F010000004C
:102ABC00007A030A00000000000000000102030479
:102ACC0006070809510A0008000000000100000078
:102ADC0000080000010000000000000000000000E1
:102AEC0000000000000000000000000000000000DA
:102AFC000000000000000000AE2A000800000000EA
:102B0C0000000000000000000000000000000000B9
:102B1C0000000000000000000000000000000000A9
:102B2C000000000000000000000000000000000099
:102B3C000000000000000000F5010008CD010008B5
:042B4C000000000085
:04000005080002E904
:00000001FF
